:040000000DEF09F007
:100F0000004C6F636B284C29206F7220556E6C6FFC
:100F1000636B2855293F000A0D52657365740A0DED
:100F2000506573657A204C206F752055000A0D5569
:100F30006E6C6F636B000A0D4C6F636B00002B507F
:100F40002C10D8B4A6EF07F0A8EF07F0B1EF07F028
:100F50002B502C10D8A4AFEF07F0B1EF07F0B6EF8D
:100F600007F0295048EC09F003EF08F020EE0AF0F2
:100F70002B50D9262C50DA22DE50DE10D8B4C3EF25
:100F800007F0C5EF07F0E0EF07F020EE0AF02B5076
:100F9000D9262C50DA2210EE03F02B50E1262C50EB
:100FA000E222DE50E65CE650800A316EDE50800AB6
:100FB0003158D8B0DEEF07F0E0EF07F003EF08F0AC
:100FC00020EE03F02B50D9262C50DA22DECF2DF064
:100FD000DDCF2EF02BC0D9FF2CC0DAFFDECF2FF0F3
:100FE000DDCF30F02D502F24D96E2E503020DA6E08
:100FF00029C0DFFF20EE03F02B50D9262C50DA2237
:10100000DE2A000EDD22120023EC09F0010E3B6EF9
:1010100000EC09F0000E286E2E0E276EBFEC08F0D3
:1010200030EF08F0360E3B6E00EC09F0000E286E33
:10103000160E276EBFEC08F030EF08F02D0E3B6E59
:1010400000EC09F0000E286E470E276EBFEC08F08A
:1010500030EF08F0170E3B6E00EC09F00AEF08F0D5
:10106000ECEC08F03D6E3E6A3E50000AD8B43BEF0F
:1010700008F02AEF08F03D504C0AD8B412EF08F0FF
:10108000190AD8B41EEF08F02AEF08F000EF00F0BC
:101090003450D96EDA6ADFCFF6FF0F0EF76E080014
:1010A000F550250AD8A457EF08F059EF08F06BEF78
:1010B00008F03450D96EDA6ADF2A000E226E000E74
:1010C000216E21C025F0236824683450D96EDA6A75
:1010D000DF2A7EEF08F03450D96EDA6ADFCFF6FFF0
:1010E0000F0EF76E0800F550296E2A6A32C02BF0F9
:1010F00033C02CF09FEC07F065EF08F0120038C009
:101100003AF08DEF08F036C032F037C033F03A0EC7
:10111000346E39C035F048EC08F03AC0F6FF0F0ED7
:10112000F76E0800F5500009D8A499EF08F09BEF7E
:1011300008F083EF08F0000E376E000E366E1200D6
:10114000080EA76E900EAB6E240EAC6EA00EAF6EA6
:10115000010E7D6E000E276E000E286E52EC09F017
:10116000000E276E000E286E4DEC09F0000E276E63
:10117000000E286E57EC09F0000E266E120027C0F4
:1011800029F028C02AF0D8902A322932D8902A3261
:10119000293229500F01516F27C029F0030E29165B
:1011A000293AF00E29165051CF0B2910506F12001A
:1011B000000E896E000E8A6E000E8B6EEF0E926E20
:1011C0009368BB0E946E1F0E0F015D6F070E5C6F70
:1011D000000E5B6FF18E12009EAAF1EF08F0F3EFA4
:1011E00008F0ECEF08F0000E266EABA2FAEF08F064
:1011F000FCEF08F0FEEF08F0AB98AB88AE501200A1
:101200003C0E3C6E000E366E000E376E3BC038F062
:101210003C0E396E7FEC08F0120000EE01F0260E55
:10122000EE6AE806FDE1000EF86E000104EF08F03A
:10123000276E9EA81EEF09F020EF09F019EF09F0C4
:1012400027C0ADFF1200D8EC08F037EC09F040ECF5
:1012500009F02EEC09F0A0EC08F012002C0E0F01A2
:10126000506F0B0E516F000E526F99921200200EAC
:10127000D36E000ED26E000E9B6E000E9A6E1200A0
:101280009B0ECB6E000ECC6E9E92060ECA6E1200A6
:10129000286E285018EC09F0120027C041F028C031
:1012A00042F0120027C043F028C044F0120027C0CB
:0812B0003FF028C040F01200DD
:020000040030CA
:0E00000015087F50FF8991FF0FC00FE00F40E1
:00000001FF
