:040000003AEF00F0E3
:100008005782FACF07F0FBCF08F0F2AC0EEF00F002
:1000180010EF00F034EF00F0A3A415EF00F017EF95
:1000280000F022EF00F0A4A41CEF00F01EEF00F097
:1000380022EF00F094EC1AF034EF00F09DA027EFC7
:1000480000F029EF00F034EF00F09EA02EEF00F052
:1000580030EF00F034EF00F024EC1AF034EF00F049
:1000680008C0FBFF07C0FAFF57921100D4EF1AF03F
:100F00000025302E326675730A0D00506572696FC8
:0D0F100064653A00696E66006E616E000057
:100F1E00000E0001DB6F38C0DCF039C0DDF03AC0E6
:100F2E00DEF03BC0DFF0DFBFA1EF07F09FEF07F071
:100F3E00B5EF07F0010EDB6FDCC009F0DDC00AF083
:100F4E00DEC00BF0DFC00CF043EC1AF009C0DCF091
:100F5E000AC0DDF00BC0DEF00CC0DFF0000E0001A9
:100F6E00E16F000EE06F4FC0CFF050C0D0F0DB51FC
:100F7E00D8B4C4EF07F0C6EF07F0DAEF07F0DB5195
:100F8E00D8A4CCEF07F0CEEF07F0D4EF07F0000EA9
:100F9E00C16F2B0EC06FD8EF07F0000EC16F2D0E74
:100FAE00C06FC0C0DBF0DCC009F0DDC00AF0DEC0EF
:100FBE000BF0DFC00CF0FDEC16F009040A10D8A4FB
:100FCE00EBEF07F0EDEF07F019EF08F00001DB5142
:100FDE00D8B4F4EF07F0F6EF07F0FFEF07F0DBC041
:100FEE006AF0CF07D8A0D007000EE16F010EE06FB8
:100FFE00E0516A0F096E140E0A6E7BEC1AF00001B6
:10100E00FD0ECF27FF0ED02336C01AF037C01BF0CF
:10101E006A0E1C6ECFC01DF0D0C01EF021EC19F070
:10102E0099EF0CF0DCC009F0DDC00AF0DEC00BF069
:10103E00DFC00CF0FDEC16F009500A10D8A42AEF10
:10104E0008F02CEF08F047EF08F00001DB51D8B4A0
:10105E0033EF08F035EF08F03EEF08F0DBC06AF032
:10106E00CF07D8A0D007000EE16F010EE06FE05160
:10107E006A0F096E180E0A6E7BEC1AF006EF08F076
:10108E00000E0001E26F000EE36F800EE46F3F0E64
:10109E00E56F000ECA6F000EC96FDCC009F0DDC02F
:1010AE000AF0DEC00BF0DFC00CF0000E0D6E000E6D
:1010BE000E6E000E0F6E000E106E3FEC18F0D8B0D4
:1010CE006BEF08F06DEF08F04CEF09F07AEF08F0D7
:1010DE00CBC0E2F0CCC0E3F0CDC0E4F0CEC0E5F082
:1010EE000001C94BCA2BE2C009F0E3C00AF0E4C00C
:1010FE000BF0E5C00CF0000E0D6E000E0E6E200E05
:10110E000F6E410E106EFAEC0EF009C0CBF00AC055
:10111E00CCF00BC0CDF00CC0CEF00001CB51DC5D9D
:10112E00096ECC51DD590A6ECD51DE590B6ECE5182
:10113E00DF590C6E56EC19F00CBEB1EF08F00C50E6
:10114E000B100A1009E1020E095CD8A0B1EF08F0ED
:10115E00B3EF08F06FEF08F0CBC022F0CCC023F055
:10116E00CDC024F0CEC025F0DCC026F0DDC027F0C7
:10117E00DEC028F0DFC029F07BEC16F0D8A0CAEF55
:10118E0008F0CCEF08F06FEF08F00001E251DC5DE3
:10119E00096EE351DD590A6EE451DE590B6EE551CD
:1011AE00DF590C6E56EC19F00CBEEBEF08F00C503C
:1011BE000B100A1007E1020E095CD8B0E9EF08F037
:1011CE00EBEF08F033EF09F0E2C0DCF0E3C0DDF046
:1011DE00E4C0DEF0E5C0DFF04CEF09F0E2C009F04C
:1011EE00E3C00AF0E4C00BF0E5C00CF0000E0D6E8B
:1011FE00000E0E6E200E0F6E410E106E0FEC11F0E3
:10120E0009C0E2F00AC0E3F00BC0E4F00CC0E5F058
:10121E000001C907D8A0CA07E251DC5D096EE3518F
:10122E00DD590A6EE451DE590B6EE551DF590C6E35
:10123E0056EC19F00CBE31EF09F00C500B100A10E1
:10124E0007E1020E095CD8B02FEF09F031EF09F07B
:10125E0033EF09F0EBEF08F0DCC022F0DDC023F035
:10126E00DEC024F0DFC025F0E2C026F0E3C027F098
:10127E00E4C028F0E5C029F07BEC16F0D8A04AEFC8
:10128E0009F04CEF09F0F5EF08F03CC0C3F0C3C015
:10129E00C4F052BE55EF09F057EF09F05DEF09F0BB
:1012AE0051C0BCF052C0BDF062EF09F0000E00015B
:1012BE00BD6F060EBC6FBCC0C7F0BDC0C8F000014C
:1012CE00C74BC82B660EC419D8A470EF09F072EF85
:1012DE0009F092EF09F0CABF79EF09F077EF09F044
:1012EE0085EF09F0000EE26F000EE36F800EE46FE3
:1012FE003F0EE56F000ECA6F000EC96F670EC31961
:10130E00D8B48CEF09F08EEF09F092EF09F0C951C5
:10131E00C727CA51C823000EDA6F000ED96FDCC082
:10132E00D1F0DDC0D2F0DEC0D3F0DFC0D4F0E2C029
:10133E00CBF0E3C0CCF0E4C0CDF0E5C0CEF023EFAF
:10134E000AF0D1C009F0D2C00AF0D3C00BF0D4C05D
:10135E000CF0E2C00DF0E3C00EF0E4C00FF0E5C0FB
:10136E0010F00FEC11F009C022F00AC023F00BC0F0
:10137E0024F00CC025F015EC14F022C0D5F023C0DB
:10138E00D6F024C0D7F025C0D8F0D5C009F0D6C00D
:10139E000AF0D7C00BF0D8C00CF0F8EC15F009C06D
:1013AE00C5F00AC0C6F0D1C022F0D2C023F0D3C01F
:1013BE0024F0D4C025F0D5C00DF0D6C00EF0D7C0A5
:1013CE000FF0D8C010F0E2C009F0E3C00AF0E4C09C
:1013DE000BF0E5C00CF0FAEC0EF009C026F00AC0D6
:1013EE0027F00BC028F00CC029F081EC19F022C0B8
:1013FE00D1F023C0D2F024C0D3F025C0D4F0E2C087
:10140E0009F0E3C00AF0E4C00BF0E5C00CF0000EEA
:10141E000D6E000E0E6E200E0F6E410E106E0FEC46
:10142E0011F009C0E2F00AC0E3F00BC0E4F00CC00A
:10143E00E5F00001D94BDA2BC751D95DDA51800A9C
:10144E003D6EC851800A3D58D8A030EF0AF032EFF9
:10145E000AF0A8EF09F0E2C009F0E3C00AF0E4C018
:10146E000BF0E5C00CF0000E0D6E000E0E6EA00E11
:10147E000F6E400E106EFAEC0EF009C0D5F00AC0D9
:10148E00D6F00BC0D7F00CC0D8F0D1C022F0D2C02D
:10149E0023F0D3C024F0D4C025F0D5C026F0D6C09A
:1014AE0027F0D7C028F0D8C029F07BEC16F0D8B0C2
:1014BE0063EF0AF065EF0AF070EF0AF0000E00011C
:1014CE00D56F000ED66F000ED76F000ED86F99EF46
:1014DE000AF0D1C009F0D2C00AF0D3C00BF0D4C0CC
:1014EE000CF0D5C00DF0D6C00EF0D7C00FF0D8C09E
:1014FE0010F03FEC18F0D8A087EF0AF089EF0AF051
:10150E0099EF0AF00001C5B18FEF0AF091EF0AF0E2
:10151E0099EF0AF0000ED56F000ED66F000ED76F42
:10152E00000ED86FDCC009F0DDC00AF0DEC00BF093
:10153E00DFC00CF0D5C00DF0D6C00EF0D7C00FF046
:10154E00D8C010F09AEC0CF009C0D1F00AC0D2F05D
:10155E000BC0D3F00CC0D4F0D1C022F0D2C023F017
:10156E00D3C024F0D4C025F0000E0D6E000E0E6E0A
:10157E00200E0F6E410E106ECBC009F0CCC00AF0DB
:10158E00CDC00BF0CEC00CF0FAEC0EF009C026F078
:10159E000AC027F00BC028F00CC029F07BEC16F027
:1015AE00D8A0DCEF0AF0DEEF0AF007EF0BF0000137
:1015BE00C94BCA2BCBC009F0CCC00AF0CDC00BF082
:1015CE00CEC00CF0000E0D6E000E0E6E200E0F6EC5
:1015DE00410E106EFAEC0EF009C0CBF00AC0CCF042
:1015EE000BC0CDF00CC0CEF0660E0001C419D8A40D
:1015FE0003EF0BF005EF0BF007EF0BF0C74BC82B0B
:10160E00CBC0E2F0CCC0E3F0CDC0E4F0CEC0E5F04C
:10161E00C9C0BAF0CAC0BBF0000E0001C26F000E06
:10162E00BF6F000EBE6F000EDA6F000ED96FFFEFA8
:10163E000BF0D1C009F0D2C00AF0D3C00BF0D4C069
:10164E000CF0E2C00DF0E3C00EF0E4C00FF0E5C008
:10165E0010F00FEC11F009C022F00AC023F00BC0FD
:10166E0024F00CC025F015EC14F022C0D5F023C0E8
:10167E00D6F024C0D7F025C0D8F0D5C009F0D6C01A
:10168E000AF0D7C00BF0D8C00CF0F8EC15F00ABE7B
:10169E005CEF0BF00A5007E10A0E095CD8B05AEF66
:1016AE000BF05CEF0BF06CEF0BF0D5C009F0D6C071
:1016BE000AF0D7C00BF0D8C00CF0F8EC15F009C04A
:1016CE00C5F00AC0C6F071EF0BF0000E0001C66F38
:1016DE00090EC56F0001C251D8A478EF0BF07AEF56
:1016EE000BF09EEF0BF0BBBF81EF0BF07FEF0BF01B
:1016FE009EEF0BF0E0516A0FD96EDA6A2E0EDF6E96
:10170E00E04BE12BCF07D8A0D007010EC26F9EEFA2
:10171E000BF0E0516A0FD96EDA6A300EDF6EE04BD5
:10172E00E12BCF07D8A0D007BE07D8A0BF07BE5168
:10173E00BF11D8A4A5EF0BF0A7EF0BF090EF0BF0B5
:10174E00E0516A0FD96EDA6AC551300FDF6EE04B89
:10175E00E12BCF07D8A0D007D1C022F0D2C023F002
:10176E00D3C024F0D4C025F0D5C00DF0D6C00EF0F5
:10177E00D7C00FF0D8C010F0E2C009F0E3C00AF0F5
:10178E00E4C00BF0E5C00CF0FAEC0EF009C026F048
:10179E000AC027F00BC028F00CC029F081EC19F01C
:1017AE0022C0D1F023C0D2F024C0D3F025C0D4F093
:1017BE00E2C009F0E3C00AF0E4C00BF0E5C00CF0A3
:1017CE00000E0D6E000E0E6E200E0F6E410E106E80
:1017DE000FEC11F009C0E2F00AC0E3F00BC0E4F028
:1017EE000CC0E5F00001BA07D8A0BB07D94BDA2B25
:1017FE00C751D95DDA51800A3D6EC851800A3D58F5
:10180E00D8B00CEF0CF00EEF0CF01CEF0CF0E1BFAB
:10181E001AEF0CF0E15109E14B0EE05DD8A01AEF82
:10182E000CF01CEF0CF020EF0BF0000EDA6F4F0EE9
:10183E00D96FD9516A0FD96EDA6ADF6AE0516A0838
:10184E00D925096E6A0E0A6EE0C00BF0E1C00CF0ED
:10185E00E5EC19F00001E051D95DE06FE151DA5984
:10186E00E16FDB51D8A43EEF0CF041EF0CF0010E0E
:10187E0042EF0CF0000ED96FDA6B55A249EF0CF067
:10188E004BEF0CF077EF0CF059EF0CF0E007D8A00F
:10189E00E107E0516A0FD96EDA6A300EDF6ECF07BC
:1018AE00D8A0D007CF51D95DDA51800A3D6ED05104
:1018BE00800A3D58D8B066EF0CF068EF0CF077EF69
:1018CE000CF0E051D95DDA51800A3D6EE151800A8B
:1018DE003D58D8A075EF0CF077EF0CF04DEF0CF0F3
:1018EE00DB51D8B47DEF0CF07FEF0CF088EF0CF0ED
:1018FE00E007D8A0E107E0516A0FD96EDA6ADBC0C3
:10190E00DFFFD951CF5FDA51D05B36C01AF037C046
:10191E001BF0E0516A0F1C6ECFC01DF0D0C01EF040
:10192E0021EC19F012000C50800B156E0C500C248B
:10193E00176E0BAEA5EF0CF0A7EF0CF0A8EF0CF0A6
:10194E0017801750D8B4AEEF0CF0B0EF0CF0C5EF17
:10195E000CF01728D8A4B6EF0CF0B8EF0CF0C0EFCF
:10196E000CF0000E096E000E0A6E000E0B6E000ECD
:10197E000C6E0B8E000E0C6ECDEF0CF0000E096E81
:10198E00000E0A6E000E0B6E000E0C6E1050800BC9
:10199E00166E15501618D8B4D7EF0CF0D9EF0CF010
:1019AE00DAEF0CF0158C10501024166E0FAEE2EF1D
:1019BE000CF0E4EF0CF0E5EF0CF016801650D8B4F6
:1019CE00EBEF0CF0EDEF0CF002EF0DF01628D8A4B3
:1019DE00F3EF0CF0F5EF0CF0FDEF0CF0000E0D6ECA
:1019EE00000E0E6E000E0F6E000E106E0F8E000E9D
:1019FE00106E0AEF0DF0000E0D6E000E0E6E000E44
:101A0E000F6E000E106E1750165CD8B011EF0DF061
:101A1E0013EF0DF03AEF0DF015AC18EF0DF01AEFC5
:101A2E000DF01CEF0DF0800E151A17C018F016C031
:101A3E0017F018C016F009C018F00DC009F018C044
:101A4E000DF00AC018F00EC00AF018C00EF00BC050
:101A5E0018F00FC00BF018C00FF00CC018F010C02B
:101A6E000CF018C010F0000E186E175016C011F0C2
:101A7E00126A115E000E125A12BE4FEF0DF0125086
:101A8E0009E11A0E115CD8A04FEF0DF051EF0DF0D9
:101A9E0088EF0DF009500A100B100C10D8A45AEF55
:101AAE000DF05DEF0DF0010E5EEF0DF0000E186EF5
:101ABE00000E096E000E0A6E000E0B6E000E0C6EFE
:101ACE0016C017F091EF0DF018A070EF0DF072EF39
:101ADE000DF078EF0DF0D89018300109186E7AEFEE
:101AEE000DF0D890183209A07FEF0DF081EF0DF0B8
:101AFE0082EF0DF0188E0C340C320B320A32093292
:101B0E00172A1650175CD8A08FEF0DF091EF0DF03D
:101B1E006BEF0DF015BC96EF0DF098EF0DF0D8EFC2
:101B2E000DF01750D8A49EEF0DF0A0EF0DF0AAEF18
:101B3E000DF0000E096E000E0A6E000E0B6E000EFA
:101B4E000C6EF9EF0EF00D5009260E500A220F50B2
:101B5E000B2210500C220CA0B7EF0DF0B9EF0DF0C8
:101B6E0065EF0EF018A0BEEF0DF0C0EF0DF0C6EF52
:101B7E000DF0D89018300109186EC8EF0DF0D890FE
:101B8E00183209A0CDEF0DF0CFEF0DF0D0EF0DF024
:101B9E00188E0C340C320B320A320932172A65EFCA
:101BAE000EF00D50095C0E500A580F500B580C5089
:101BBE00800A116E1050800A1158D8B0E9EF0DF05E
:101BCE00EBEF0DF016EF0EF009500D5C116E0A5092
:101BDE000E58126E0B500F58136E0C501058146E88
:101BEE00FF0E1124096EFF0E12200A6EFF0E132037
:101BFE000B6EFF0E14200C6E800E151A186C1850FA
:101C0E00D8A40CEF0EF00EEF0EF01EEF0EF0010E3C
:101C1E000926000E0A220B220C221EEF0EF00D508A
:101C2E00095E0E500A5A0F500B5A10500C5A09509A
:101C3E000A100B100C10D8A427EF0EF029EF0EF09F
:101C4E005EEF0EF01850D8A42FEF0EF031EF0EF01D
:101C5E005EEF0EF0000E096E000E0A6E000E0B6E99
:101C6E00000E0C6EF9EF0EF0D89009360A360B36D0
:101C7E000C3618AE45EF0EF047EF0EF048EF0EF0B3
:101C8E00098018A04DEF0EF04FEF0EF053EF0EF04F
:101C9E00D880183655EF0EF0D89018361750D8B4A5
:101CAE005BEF0EF05DEF0EF05EEF0EF017060BAE73
:101CBE0063EF0EF065EF0EF03BEF0EF0000E166EBA
:101CCE0018AE6CEF0EF06EEF0EF086EF0EF018C041
:101CDE0011F07F0E1116D8B477EF0EF079EF0EF0EB
:101CEE007DEF0EF0010E166E86EF0EF009A082EF5C
:101CFE000EF084EF0EF086EF0EF079EF0EF0165028
:101D0E00D8B48CEF0EF08EEF0EF0B9EF0EF0010E90
:101D1E000926000E0A220B220C220CA099EF0EF0BF
:101D2E009BEF0EF0B9EF0EF009C011F00AC012F0E1
:101D3E000BC013F00CC014F01434143213321232E0
:101D4E00113211C009F012C00AF013C00BF014C00A
:101D5E000CF01728D8B4B6EF0EF0B8EF0EF0B9EFBE
:101D6E000EF0172A1728D8B4BFEF0EF0C1EF0EF001
:101D7E00C9EF0EF01750D8A4C7EF0EF0C9EF0EF052
:101D8E00DBEF0EF0000E096E000E0A6E000E0B6EEB
:101D9E00000E0C6E1750D8A4D7EF0EF0D9EF0EF040
:101DAE00DBEF0EF0000E156E17A0E0EF0EF0E2EF77
:101DBE000EF0E5EF0EF00B8EE6EF0EF00B9ED890C8
:101DCE0017300C6E15AEEEEF0EF0F0EF0EF0F1EFE9
:101DDE000EF00C8E09C009F00AC00AF00BC00BF011
:101DEE000CC00CF012000C50800B156E0C500C2415
:101DFE001B6E0BAE05EF0FF007EF0FF008EF0FF0B5
:101E0E001B801B50D8B40EEF0FF010EF0FF023EF26
:101E1E000FF01B28D8A416EF0FF018EF0FF020EFDD
:101E2E000FF0000E096E000E0A6E000E0B6E000E05
:101E3E000C6E0B8E2BEF0FF0000E096E000E0A6E5D
:101E4E00000E0B6E000E0C6E1050800B151A1050FB
:101E5E001024166E0FAE36EF0FF038EF0FF039EF8D
:101E6E000FF016801650D8B43FEF0FF041EF0FF081
:101E7E0054EF0FF01628D8A447EF0FF049EF0FF0EC
:101E8E0051EF0FF0000E0D6E000E0E6E000E0F6E67
:101E9E00000E106E0F8E5CEF0FF0000E0D6E000E2A
:101EAE000E6E000E0F6E000E106E1650D8B462EF4E
:101EBE000FF064EF0FF06CEF0FF01B50D8A46AEF29
:101ECE000FF06CEF0FF076EF0FF0000E096E000EB4
:101EDE000A6E000E0B6E000E0C6E0EEF11F00F5010
:101EEE000902F3CF20F0F4CF21F02050176E186ABC
:101EFE00196A1A6A21501C6E1D6A1E6A1F6A0E50DC
:101F0E000A02F3CF20F0F4CF21F020501726000E56
:101F1E00182219221A2221501C26000E1D221E22C2
:101F2E001F220D500B02F3CF20F0F4CF21F02050E2
:101F3E001726000E182219221A2221501C26000ED6
:101F4E001D221E221F2219C01AF018C019F017C028
:101F5E0018F0176A0D500A02F3CF20F0F4CF21F0DB
:101F6E002050172621501822000E1922000E1A2278
:101F7E000E500902F3CF20F0F4CF21F02050172697
:101F8E0021501822000E1922000E1A2219C01AF022
:101F9E0018C019F017C018F0176A0D500902F3CFC8
:101FAE0020F0F4CF21F02050172621501822000ED9
:101FBE001922000E1A220F500A02F3CF20F0F4CF8E
:101FCE0021F020501C2621501D22000E1E22000E34
:101FDE001F220E500B02F3CF20F0F4CF21F0205031
:101FEE001C2621501D22000E1E22000E1F220F50F5
:101FFE000B02F3CF20F0F4CF21F02050116E2150C0
:10200E00126E136A146A13C014F012C013F011C0CA
:10201E0012F0116A11501C2612501D2213501E224E
:10202E0014501F2217C011F018C012F019C013F06F
:10203E001AC014F0190E29EF10F0D8901432133282
:10204E0012321132E82E24EF10F011501C261250CD
:10205E001D2213501E2214501F2219C01AF018C030
:10206E0019F017C018F0176A16501BC011F0126A3B
:10207E001126000E1222820E1124206EFF0E122047
:10208E00216E5FEF10F0D8901C361D361E361F36AF
:10209E001AAE54EF10F056EF10F057EF10F01C8000
:1020AE00D8901736183619361A362006D8A02106BB
:1020BE001EAE64EF10F066EF10F04AEF10F0000E57
:1020CE00166E1AAE6DEF10F06FEF10F093EF10F07A
:1020DE00FF0E1714116EFF0E1814126EFF0E191448
:1020EE00136E7F0E1A14146E11501210131014105A
:1020FE00D8B484EF10F086EF10F08AEF10F0010ED6
:10210E00166E93EF10F01CA08FEF10F091EF10F001
:10211E0093EF10F086EF10F01650D8B499EF10F040
:10212E009BEF10F0BFEF10F0010E1C26000E1D22CB
:10213E001E221F221FA0A6EF10F0A8EF10F0BFEF77
:10214E0010F01CC011F01DC012F01EC013F01FC005
:10215E0014F01434143213321232113211C01CF036
:10216E0012C01DF013C01EF014C01FF0204A212A09
:10217E0021BECAEF10F0215008E12028D8A0CAEFE6
:10218E0010F0CCEF10F0D6EF10F0000E1C6E000E1B
:10219E001D6E800E1E6E7F0E1F6E04EF11F021BE9F
:1021AE00E3EF10F0215006E12004D8B0E1EF10F07B
:1021BE00E3EF10F0EFEF10F0000E1C6E000E1D6E30
:1021CE00000E1E6E000E1F6E000E156E04EF11F047
:1021DE0020C01BF0FF0E1C16FF0E1D167F0E1E16C6
:1021EE00000E1F161BA0FEEF10F000EF11F001EF16
:1021FE0011F01E8ED8901B301F6E15501F121CC072
:10220E0009F01DC00AF01EC00BF01FC00CF012002A
:10221E000C50800B196E0C500C24206E0BAE1AEF66
:10222E0011F01CEF11F01DEF11F020802050D8B4EA
:10223E0023EF11F025EF11F03AEF11F02028D8A47A
:10224E002BEF11F02DEF11F035EF11F0000E096E9E
:10225E00000E0A6E000E0B6E000E0C6E0B8E000E34
:10226E000C6E42EF11F0000E096E000E0A6E000E9B
:10227E000B6E000E0C6E1050800B191A105010249D
:10228E00216E0FAE4DEF11F04FEF11F050EF11F038
:10229E0021802150D8B456EF11F058EF11F06DEFA8
:1022AE0011F02128D8A45EEF11F060EF11F068EF65
:1022BE0011F0000E0D6E000E0E6E000E0F6E000E63
:1022CE00106E0F8E000E106E75EF11F0000E0D6E6B
:1022DE00000E0E6E000E0F6E000E106E0D500E10D4
:1022EE000F101010D8A47EEF11F080EF11F098EFC0
:1022FE0011F0000E096E000E0A6E000E0B6E000E2F
:10230E000C6E800E0B127F0E0C1219500C1209C09F
:10231E0009F00AC00AF00BC00BF00CC00CF0DBEF9A
:10232E0012F02050D8A49EEF11F0A0EF11F0AAEFFA
:10233E0011F0000E096E000E0A6E000E0B6E000EEE
:10234E000C6EDBEF12F0215020C011F0126A115EFC
:10235E00000E125A7F0E11241A6E000E12201B6EE2
:10236E0009C015F00AC016F00BC017F00CC018F01B
:10237E00000E096E000E0A6E000E0B6E000E0C6E35
:10238E00000E1C6E000E1D6E000E1E6E000E1F6ED9
:10239E00000E216E0BEF12F02150D8B4D9EF11F0D0
:1023AE00DBEF11F0F2EF11F0D89015361636173626
:1023BE001836D89009360A360B360C361FAEEAEFB1
:1023CE0011F0ECEF11F0EDEF11F00980D8901C3602
:1023DE001D361E361F360D50155C0E5016580F50FA
:1023EE00175810501858D8A0FFEF11F001EF12F047
:1023FE000AEF12F01F8C0D50155E0E50165A0F502C
:10240E00175A1050185A212A190E216411EF12F082
:10241E0013EF12F0D3EF11F015501610171018100D
:10242E00D8B41CEF12F01EEF12F036EF12F01C8033
:10243E0036EF12F0D89009360A360B360C361FAE30
:10244E002BEF12F02DEF12F02EEF12F00980D89034
:10245E001C361D361E361F361A06D8A01B060BAEAE
:10246E003BEF12F03DEF12F021EF12F0000E216E55
:10247E001FAE44EF12F046EF12F06AEF12F0FF0EAD
:10248E001C14116EFF0E1D14126EFF0E1E14136E11
:10249E007F0E1F14146E1150121013101410D8B496
:1024AE005BEF12F05DEF12F061EF12F0010E216E94
:1024BE006AEF12F009A066EF12F068EF12F06AEF01
:1024CE0012F05DEF12F02150D8B470EF12F072EFEF
:1024DE0012F096EF12F0010E0926000E0A220B22C0
:1024EE000C220CA07DEF12F07FEF12F096EF12F09F
:1024FE0009C011F00AC012F00BC013F00CC014F09A
:10250E001434143213321232113211C009F012C0C7
:10251E000AF013C00BF014C00CF01A4A1B2A1BBE93
:10252E00A1EF12F01B5008E11A28D8A0A1EF12F06B
:10253E00A3EF12F0AEEF12F0000E1B6E1A68000E33
:10254E00096E000E0A6E000E0B6E000E0C6E1BBE98
:10255E00BBEF12F01B5006E11A04D8B0B9EF12F01F
:10256E00BBEF12F0C9EF12F0000E1B6E000E1A6ECA
:10257E00000E096E000E0A6E000E0B6E000E0C6E33
:10258E00000E196E1AC020F020A0D0EF12F0D2EF7C
:10259E0012F0D5EF12F00B8ED6EF12F00B9ED890F4
:1025AE0020300C6E8CEF11F012004050D96EDA6AAA
:1025BE00DFCFF6FF0F0EF76E0800F550250AD8A4F0
:1025CE00EBEF12F0EDEF12F001EF14F04050D96E78
:1025DE00DA6ADF2A000E506E000E4F6E4FC055F0B5
:1025EE0051685268000E486E21EF13F0558240502C
:1025FE00D96EDA6ADF2A21EF13F0010E486E21EF51
:10260E0013F04050D96EDA6ADFCFF6FF0F0EF76E79
:10261E000800F550426E436A4350000AD8B41AEFD0
:10262E0013F004EF13F04250300AD8B4FDEF12F05D
:10263E0004EF13F04850D8B427EF13F029EF13F03E
:10264E0008EF13F04050D96EDA6ADFCFF6FF0F0EA7
:10265E00F76E0800F5502E0AD8A438EF13F03AEFB3
:10266E0013F048EF13F04050D96EDA6ADF2A40C0FB
:10267E000FF041C010F094EC18F00FC051F010C0E4
:10268E0052F04050D96EDA6ADF504A6E4AC0F6FFF9
:10269E000F0EF76E0800F5CF49F061EF13F04A2ADE
:1026AE007AEF13F06C0E496E7AEF13F0000E496E4E
:1026BE007AEF13F04950426E436A4350000AD8B481
:1026CE006BEF13F05DEF13F042504C0AD8B456EF97
:1026DE0013F02A0AD8B459EF13F00A0AD8B456EFF9
:1026EE0013F05DEF13F04AC0F6FF0F0EF76E080001
:1026FE00F550660AD8A486EF13F088EF13F0FBEFBF
:10270E0013F0B2EF13F04150D96EDA6ADFCF42F018
:10271E00040EDF264250D96EDA6ADECF44F0DECFE9
:10272E0045F0DECF46F0DECF47F0C7EF13F0415055
:10273E00D96EDA6ADFCF42F0040EDF264250D96E30
:10274E00DA6ADECF44F0DECF45F0DECF46F0DECFE4
:10275E0047F0C7EF13F04950426E436A4350000AE8
:10276E00D8B4BCEF13F0C7EF13F042504C0AD8B4F4
:10277E009EEF13F0200AD8B48AEF13F0C7EF13F0D0
:10278E004050D96EDA6A4A28DF6EE5EF13F03EC08C
:10279E0036F03FC037F044C038F045C039F046C07F
:1027AE003AF047C03BF04AC0F6FF0F0EF76E080036
:1027BE00F5CF3CF08FEC07F014EF14F04AC0F6FFA3
:1027CE000F0EF76E0800F550426E436A4350000A32
:1027DE00D8B4F4EF13F0FBEF13F04250660AD8B4FE
:1027EE00CEEF13F0FBEF13F04050D96EDA6ADF2A0A
:1027FE0014EF14F04050D96EDA6ADFCFF6FF0F0EE9
:10280E00F76E0800F5500B6E0C6A3EC00DF03FC01F
:10281E000EF07CEC17F0FBEF13F0120060C032F0FC
:10282E0061C033F062C034F063C035F022C032F0C4
:10283E0023C033F024C034F025C035F0810E266E4F
:10284E00FF0E276E32C028F033C029F034C02AF0B4
:10285E0035C02BF0180E39EF14F0D8902B322A32E7
:10286E0029322832E82E34EF14F028502624306E08
:10287E00000E2720316E31BE4EEF14F0315009E1BB
:10288E00170E305CD8A04EEF14F050EF14F05AEF44
:10289E0014F022C022F023C023F024C024F025C05F
:1028AE0025F01DEF15F031BE5FEF14F061EF14F05F
:1028BE00D1EF14F030C026F0FF0E276EFF0E286EFB
:1028CE007F0E296E000E2A6E266670EF14F078EFDA
:1028DE0014F02A342A32293228322732262E6BEF70
:1028EE0014F027C02CF028C02DF029C02EF02AC0DD
:1028FE002FF02C503214266E2D503314276E2E507E
:10290E003414286E2F503514296E26502710281097
:10291E002910D8A495EF14F097EF14F099EF14F056
:10292E0050EF14F032C026F033C027F034C028F038
:10293E0035C029F0200EA9EF14F0D8902932283294
:10294E0027322632E82EA4EF14F026502710281036
:10295E002910D8B4B5EF14F0B7EF14F0BFEF14F0A0
:10296E002C5032262D5033222E5034222F50352209
:10297E002C1C266E2D1C276E2E1C286E2F1C296ECD
:10298E002650321627503316285034162950351635
:10299E0015EF15F032C026F033C027F034C028F002
:1029AE0035C029F0200EE1EF14F0D89029322832EC
:1029BE0027322632E82EDCEF14F02650271028108E
:1029CE002910D8A4EDEF14F0EFEF14F0F9EF14F096
:1029DE00000E326E000E336E000E346E000E356E2B
:1029EE0015EF15F0D8903234266E3334276E34340A
:1029FE00286E3534296E2650271028102910D8B489
:102A0E000BEF15F00DEF15F015EF15F0000E326E01
:102A1E00000E336E800E346EBF0E356E32C022F055
:102A2E0033C023F034C024F035C025F01200186EE8
:102A3E001850D8B425EF15F027EF15F049EF15F023
:102A4E0013BE2EEF15F02CEF15F049EF15F010C058
:102A5E0014F011C015F012C016F013C017F0141EAA
:102A6E00151E161E171E142A000E152216221722C8
:102A7E0014C01AF015C01BF016C01CF017C01DF0C4
:102A8E0051EF15F010C01AF011C01BF012C01CF05F
:102A9E0013C01DF01050111012101310D8A45AEFBD
:102AAE0015F05CEF15F066EF15F0000E106E000ECF
:102ABE00116E000E126E000E136EF7EF15F0960EDD
:102ACE00196E70EF15F0192AD8901D321C321B3278
:102ADE001A32000E1A14146E000E1B14156E000E10
:102AEE001C14166EFE0E1D14176E145015101610B3
:102AFE001710D8A485EF15F087EF15F06AEF15F0D3
:102B0E0095EF15F0192A010E1A26000E1B221C2213
:102B1E001D22D8901D321C321B321A32000E1A148E
:102B2E00146E000E1B14156E000E1C14166EFF0E86
:102B3E001D14176E1450151016101710D8A4AAEFE6
:102B4E0015F0ACEF15F089EF15F0B4EF15F019068E
:102B5E00D8901A361B361C361D361CBEB9EF15F032
:102B6E00BBEF15F0C3EF15F0020E1960C1EF15F0B3
:102B7E00C3EF15F0AEEF15F019B0C8EF15F0CAEFB0
:102B8E0015F0CBEF15F01C9ED890193219C014F029
:102B9E00156A166A176A14C017F0166A156A146A4F
:102BAE0014501A1215501B1216501C1217501D12CB
:102BBE001850D8B4E5EF15F0E7EF15F0EFEF15F07C
:102BCE0013BEEEEF15F0ECEF15F0EFEF15F01D8ED6
:102BDE001AC010F01BC011F01CC012F01DC013F073
:102BEE0012000B340C34126E1250D8A401EF16F0F2
:102BFE0003EF16F00DEF16F0000E096E000E0A6EC2
:102C0E00000E0B6E000E0C6E7AEF16F009C00DF072
:102C1E000AC00EF00BC00FF00CC010F0200E1DEF0E
:102C2E0016F0D89010320F320E320D32E82E18EF09
:102C3E0016F00D50116E0B8EFF0E0916FF0E0A16B2
:102C4E00FF0E0B16000E0C16960E125E12BE34EF11
:102C5E0016F032EF16F04AEF16F01250800A970F68
:102C6E00D8B03CEF16F03EEF16F040EF16F003EF43
:102C7E0016F0D8900C320B320A320932123E40EF67
:102C8E0016F062EF16F01F0E126450EF16F052EFB0
:102C9E0016F05AEF16F003EF16F0D89009360A36F2
:102CAE000B360C3612061250D8A460EF16F062EFF7
:102CBE0016F054EF16F01150D8B468EF16F06AEF14
:102CCE0016F072EF16F00C1E0B1E0A1E096C000E8B
:102CDE000A220B220C2209C009F00AC00AF00BC00E
:102CEE000BF00CC00CF01200000E22142A6E000E17
:102CFE0023142B6E800E24142C6E7F0E25142D6E35
:102D0E002A502B102C102D10D8A490EF16F092EF05
:102D1E0016F09AEF16F0000E226E000E236E000EC5
:102D2E00246E000E256E000E26142A6E000E271439
:102D3E002B6E800E28142C6E7F0E29142D6E2A50A9
:102D4E002B102C102D10D8A4AFEF16F0B1EF16F0FB
:102D5E00B9EF16F0000E266E000E276E000E286ECE
:102D6E00000E296E25AEBEEF16F0C0EF16F0C9EFBD
:102D7E0016F0226C231ED8B0232A241ED8B0242A83
:102D8E00800E255629AECEEF16F0D0EF16F0D9EF05
:102D9E0016F0266C271ED8B0272A281ED8B0282A4F
:102DAE00800E2956000E221A000E231A000E241A27
:102DBE00800E251A000E261A000E271A000E281A4B
:102DCE00800E291A2650225C27502358285024584A
:102DDE0029502558D8B0F6EF16F0F8EF16F0FBEFA5
:102DEE0016F0D890FCEF16F0D880120064C013F0E5
:102DFE0065C014F066C015F067C016F009C013F078
:102E0E000AC014F00BC015F00CC016F013C00DF074
:102E1E0014C00EF015C00FF016C010F0180E1DEFF6
:102E2E0017F0D89010320F320E320D32E82E18EF06
:102E3E0017F00D50116E126A11501210D8A42AEF0D
:102E4E0017F02CEF17F04CEF17F0D89013340D6EDF
:102E5E0014340E6E15340F6E1634106E0D500E1097
:102E6E000F101010D8A43EEF17F040EF17F046EFFA
:102E7E0017F0000E0A6E020E096E7BEF17F0000EB1
:102E8E000A6E030E096E7BEF17F011281210D8A4EC
:102E9E0053EF17F055EF17F077EF17F013C00DF053
:102EAE0014C00EF015C00FF016C010F0090ED89019
:102EBE000D360E360F361036E82E5EEF17F00D502B
:102ECE000E100F101010D8B46FEF17F072EF17F03E
:102EDE00010E73EF17F0000E096E0A6A7BEF17F002
:102EEE00000E0A6E040E096E12000D500E10D8B4AC
:102EFE0083EF17F085EF17F08EEF17F00D500E10D1
:102F0E00D8A48CEF17F08EEF17F093EF17F00B504D
:102F1E006AEC1BF0E0EF17F020EE0AF00D50D92608
:102F2E000E50DA22DE50DE10D8B4A0EF17F0A2EF6A
:102F3E0017F0BDEF17F020EE0AF00D50D9260E5007
:102F4E00DA2210EE03F00D50E1260E50E222DE5092
:102F5E00E65CE650800A136EDE50800A1358D8B035
:102F6E00BBEF17F0BDEF17F0E0EF17F020EE03F018
:102F7E000D50D9260E50DA22DECF0FF0DDCF10F035
:102F8E000DC0D9FF0EC0DAFFDECF11F0DDCF12F08B
:102F9E000F501124D96E10501220DA6E0BC0DFFFC5
:102FAE0020EE03F00D50D9260E50DA22DE2A000E46
:102FBE00DD22120019EC1BF0F28EF28CB80E096EA7
:102FCE00360E0A6E83EC1BF055EC1BF04EEC1BF02C
:102FDE00000E0B6E000E0A6E31EC1BF0000E0B6E27
:102FEE00080E0A6E3BEC1BF00B0E0001E76F0BECAC
:102FFE001BF00D0E0001EE6FAF0EED6FB60EE82E4C
:10300E00FED7ED2FFCD7EE2FFAD70000000E0B6E79
:10301E00080E0A6E31EC1BF0000E0C6E050E0B6ED8
:10302E0068C009F069C00AF0E7EC18F009C010F0AA
:10303E000AC011F0126A136A000E1EEC15F010C0D1
:10304E00EFF011C0F0F012C0F1F013C0F2F0010E6B
:10305E000001E76FEFC0E8F0F0C0E9F0F1C0EAF070
:10306E00F2C0EBF00BEC1BF000EF18F03AEF00F0B3
:10307E00000E0914116E000E0A14126E800E0B143F
:10308E00136E7F0E0C14146E1150121013101410B8
:10309E00D8A454EF18F056EF18F05EEF18F0000EAB
:1030AE00096E000E0A6E000E0B6E000E0C6E000EF8
:1030BE000D14116E000E0E14126E800E0F14136E80
:1030CE007F0E1014146E1150121013101410D8A479
:1030DE0073EF18F075EF18F07DEF18F0000E0D6E0F
:1030EE00000E0E6E000E0F6E000E106E0D500918B3
:1030FE000FE10E500A180CE10F500B1809E1105099
:10310E000C18D8B48DEF18F08FEF18F092EF18F06E
:10311E00D89093EF18F0D8801200000E136E000EA8
:10312E00126E0F50D96EDA6ADFCFF6FF0F0EF76E02
:10313E000800F5502A0AD8A4A7EF18F0A9EF18F046
:10314E00CFEF18F00F50D96EDA6ADF2A1050D96E11
:10315E00DA6A020EDF26DF5CD96EDA6ADECF12F093
:10316E00DECF13F0E2EF18F012C009F013C00AF030
:10317E00000E0C6E0A0E0B6EE7EC1AF011500924BD
:10318E00126E000E0A20136E0F50D96EDA6ADF2A05
:10319E000F50D96EDA6ADFCFF6FF0F0EF76E08000A
:1031AE00F550D00F116E090E1164E0EF18F0E2EF3A
:1031BE0018F0BBEF18F012C00FF013C010F0120091
:1031CE00000E0E6E000E0D6E0B500C10D8B4F2EFFA
:1031DE0018F0F4EF18F01CEF19F0010E0F6EFCEF63
:1031EE0018F0D8900B360C360F2A0CAE01EF19F0F2
:1031FE0003EF19F0F8EF18F0D8900D360E360B508D
:10320E00095C0C500A58D8A00FEF19F011EF19F005
:10321E0016EF19F00B50095E0C500A5A0D80D8901B
:10322E000C320B320F2E03EF19F00DC009F00EC049
:10323E000AF012001EBE28EF19F026EF19F02CEF3F
:10324E0019F0000E1E6E000E1D6E000E216E000E89
:10325E00206E3EEF19F0000E0C6E200E0B6E1AC093
:10326E000DF01BC00EF07CEC17F0204A212A1D50E9
:10327E00205C2150800A1F6E1E50800A1F58D8A055
:10328E004BEF19F04DEF19F032EF19F01CC014F09E
:10329E001AC015F01BC016F0C5EC19F012000CBECA
:1032AE005BEF19F05DEF19F067EF19F009C009F047
:1032BE000AC00AF00BC00BF00CC00CF080EF19F036
:1032CE0009C00DF00AC00EF00BC00FF00CC010F0CC
:1032DE000D1E0E1E0F1E101E0D2A000E0E220F2288
:1032EE0010220DC009F00EC00AF00FC00BF010C076
:1032FE000CF01200000E261A000E271A000E281AC5
:10330E00800E291A22C009F023C00AF024C00BF047
:10331E0025C00CF026C00DF027C00EF028C00FF00F
:10332E0029C010F09AEC0CF009C022F00AC023F06C
:10333E000BC024F00CC025F012004DC0E6F0B2EF29
:10334E0019F04BC03EF04CC03FF0E60E406E4EC042
:10335E0041F0DCEC12F0E6C0F6FF0F0EF76E08003F
:10336E00F5500009D8A4BEEF19F0C0EF19F0A8EF80
:10337E0019F0000E4C6E000E4B6E1200000E196E00
:10338E00000E186ED6EF19F017C00BF00C6A15C0B0
:10339E000DF016C00EF07CEC17F0184A192A1450D6
:1033AE001824D96EDA6ADF50176E1750D8A4E2EFE0
:1033BE0019F0E4EF19F0CBEF19F012000AC00FF07C
:1033CE0009C00EF0F7EF19F00F50D96EDA6ADF5020
:1033DE000D6E0F2A0E50D96EDA6A0DC0DFFF0E2A5F
:1033EE000B06D8A00C060B2806E10C28D8A402EF79
:1033FE001AF004EF1AF0EBEF19F01200080EA76E98
:10340E00900EAB6E240EAC6E080EAF6E020E7D6E7D
:10341E00000E096E000E0A6E79EC1BF0000E096E9E
:10342E00000E0A6E74EC1BF0000E096E000E0A6E92
:10343E007EEC1BF0000E566E12009E9053C001F0F3
:10344E0054C002F0C0EC1AF00001F951FA11D8B4D0
:10345E0033EF1AF035EF1AF042EF1AF002D842EFBE
:10346E001AF00500FA6EF951FD6EFA51FE6EF85023
:10347E00FF6EFA501200120009500A100B100C10B9
:10348E00D8B44CEF1AF04EEF1AF056EF1AF0000EB9
:10349E00091A000E0A1A000E0B1A800E0C1A09C019
:1034AE0009F00AC00AF00BC00BF00CC00CF01200B1
:1034BE00000EAA6E000ECF6E1A0ECE6E9E90CE50DD
:1034CE00CFCF0BF00C6A0BC00CF00B6A0B10536EC7
:1034DE000C50546E9D80140E096E370E0A6E6FECF2
:1034EE001BF0010ECD6E120009C00CF00A2A0A0460
:1034FE000B6E0BC0F6FF0F0EF76E0C2A0C04D96E76
:10350E00DA6A0800F5CFDFFFDF50D8A491EF1AF08A
:10351E0093EF1AF07DEF1AF01200A49451CF05F03C
:10352E0052CF06F005C003F006C004F002D8ABEF90
:10353E001AF005000001FA6EFB51FD6EFC51FE6E95
:10354E00F850FF6EFA5012001200000E896E000E37
:10355E008A6E000E8B6EEF0E926E9368BF0E946E97
:10356E001F0E0F015D6F070E5C6F000E5B6FF18E0D
:10357E001200CDA4C5EF1AF0C7EF1AF0CFEF1AF074
:10358E00CD900250CF6E01C0CEFFCD80D3EF1AF09A
:10359E000250CF6E01C0CEFF120000EE60F05A0E48
:1035AE00EE6AE806FDE100EE4FF0080EEE6AE80660
:1035BE00FDE157905792000EF86E0001E1EF17F003
:1035CE0009500B02F3CF0DF0F4CF0EF009500C02A0
:1035DE00F3500E260A500B02F3500E260DC009F0C2
:1035EE000EC00AF01200040E0F01506F000E516F44
:1035FE00000E526F160E096E370E0A6E83EC1BF01C
:10360E009992A494A3841200E80E0001EC6F000EB0
:10361E004B6E000E4C6EE7C04DF0EC0E4E6EA4ECF1
:10362E0019F0120088EC1BF0ACEC1AF045EC1BF014
:10363E00FAEC1AF05FEC1AF005EC1AF01200096EB3
:10364E009EA82CEF1BF02EEF1BF027EF1BF009C0EE
:10365E00ADFF1200FE0E26EC1BF0450E26EC1BF005
:10366E000A5026EC1BF01200FE0E26EC1BF0530E39
:10367E0026EC1BF00A5026EC1BF01200600ED36EE7
:10368E00000ED26E000E9B6E000E9A6E1200FE0E93
:10369E0026EC1BF0510E26EC1BF01200FE0E26EC53
:1036AE001BF0410E26EC1BF0120003C068F004C0A4
:1036BE0069F063EC1BF0120053C001F054C002F02D
:1036CE00C0EC1AF012000A6E0A5026EC1BF0120023
:1036DE0009C0F9F00AC0FAF0120009C0F5F00AC0EC
:1036EE00F6F0120009C0F7F00AC0F8F0120009C097
:1036FE00F3F00AC0F4F0120009C0FBF00AC0FCF0AF
:0A370E001200D09E120012001200FB
:020000040030CA
:0E00000015027F50FF8991FF0FC00FE00F40E7
:00000001FF
